{
  "address": "0x7dDa86E455C95022d9740c06F240Ad766F3b8c16",
  "abi": [
    {
      "inputs": [
        {
          "internalType": "contract IERC20",
          "name": "_token",
          "type": "address"
        },
        {
          "internalType": "address[]",
          "name": "_wallets",
          "type": "address[]"
        },
        {
          "internalType": "uint256[]",
          "name": "_shares",
          "type": "uint256[]"
        }
      ],
      "stateMutability": "nonpayable",
      "type": "constructor"
    },
    {
      "anonymous": false,
      "inputs": [
        {
          "indexed": false,
          "internalType": "address",
          "name": "wallet",
          "type": "address"
        },
        {
          "indexed": false,
          "internalType": "uint256",
          "name": "amount",
          "type": "uint256"
        }
      ],
      "name": "Withdraw",
      "type": "event"
    },
    {
      "inputs": [],
      "name": "SHARE_DENOMINATOR",
      "outputs": [
        {
          "internalType": "uint256",
          "name": "",
          "type": "uint256"
        }
      ],
      "stateMutability": "view",
      "type": "function"
    },
    {
      "inputs": [
        {
          "internalType": "address",
          "name": "wallet",
          "type": "address"
        }
      ],
      "name": "available",
      "outputs": [
        {
          "internalType": "uint256",
          "name": "",
          "type": "uint256"
        }
      ],
      "stateMutability": "view",
      "type": "function"
    },
    {
      "inputs": [],
      "name": "currentDepositTotal",
      "outputs": [
        {
          "internalType": "uint256",
          "name": "_depositTotal",
          "type": "uint256"
        }
      ],
      "stateMutability": "view",
      "type": "function"
    },
    {
      "inputs": [],
      "name": "depositTotal",
      "outputs": [
        {
          "internalType": "uint256",
          "name": "",
          "type": "uint256"
        }
      ],
      "stateMutability": "view",
      "type": "function"
    },
    {
      "inputs": [
        {
          "internalType": "address",
          "name": "",
          "type": "address"
        }
      ],
      "name": "shares",
      "outputs": [
        {
          "internalType": "uint256",
          "name": "",
          "type": "uint256"
        }
      ],
      "stateMutability": "view",
      "type": "function"
    },
    {
      "inputs": [],
      "name": "token",
      "outputs": [
        {
          "internalType": "contract IERC20",
          "name": "",
          "type": "address"
        }
      ],
      "stateMutability": "view",
      "type": "function"
    },
    {
      "inputs": [],
      "name": "withdraw",
      "outputs": [],
      "stateMutability": "nonpayable",
      "type": "function"
    },
    {
      "inputs": [],
      "name": "withdrawTotal",
      "outputs": [
        {
          "internalType": "uint256",
          "name": "",
          "type": "uint256"
        }
      ],
      "stateMutability": "view",
      "type": "function"
    },
    {
      "inputs": [
        {
          "internalType": "address",
          "name": "",
          "type": "address"
        }
      ],
      "name": "withdrawn",
      "outputs": [
        {
          "internalType": "uint256",
          "name": "",
          "type": "uint256"
        }
      ],
      "stateMutability": "view",
      "type": "function"
    }
  ],
  "transactionHash": "0xe12a23e20d382433a0228d9297928a8e4b8764e012be9befef4748dcdb29e8fd",
  "args": [
    "0x3478A2E28F403A8a33C57A8262A26C7CaB7E1Add",
    [
      "0x137b6Fcbb8182FC3C808664d5770D9e0ca34c11b",
      "0xB7633767a7938CB3f109fb9FD848b84C6aDe3EE4",
      "0x51E405376f806b30013A04F47C910891cF6Ff1d2",
      "0x75ee0b111ECccA49825d5E04fbe286AbA588B6aE",
      "0x8571CE50Faa35B824cb65f027b913Cd23fe0ACa0",
      "0x6869E9Dd38697EbB64Bf139fAdBf5962A21807aE",
      "0xeDee77E0d8c7ec3D972E0eaCF4ce0eB734829e12",
      "0x4E605A361290cC0eE684B6b5e5DA3D14630d3fD2",
      "0xAe90A7b9EE2Eea321BC0EE573BC05b407818De48",
      "0xF568c454d977f5Bf366ee68822D678Ff271c4c3C"
    ],
    [
      3000,
      330,
      170,
      170,
      330,
      1500,
      1500,
      1500,
      750,
      750
    ]
  ],
  "solcInputHash": "d5722413a7ed22e1556afe7fd52dfc04",
  "bytecode": "0x60a06040523480156200001157600080fd5b506040516200097e3803806200097e833981016040819052620000349162000199565b80518251146200007e5760405162461bcd60e51b815260206004820152601160248201527041544d3a20636f7272757074206461746160781b604482015260640160405180910390fd5b6001600160601b0319606084901b1660805260005b82518110156200011557818181518110620000b257620000b26200030b565b602002602001015160026000858481518110620000d357620000d36200030b565b60200260200101516001600160a01b03166001600160a01b031681526020019081526020016000208190555080806200010c90620002e1565b91505062000093565b5050505062000350565b600082601f8301126200013157600080fd5b815160206200014a6200014483620002bb565b62000288565b80838252828201915082860187848660051b89010111156200016b57600080fd5b60005b858110156200018c578151845292840192908401906001016200016e565b5090979650505050505050565b600080600060608486031215620001af57600080fd5b8351620001bc8162000337565b602085810151919450906001600160401b0380821115620001dc57600080fd5b818701915087601f830112620001f157600080fd5b8151620002026200014482620002bb565b8082825285820191508585018b878560051b88010111156200022357600080fd5b600095505b83861015620002535780516200023e8162000337565b83526001959095019491860191860162000228565b5060408a015190975094505050808311156200026e57600080fd5b50506200027e868287016200011f565b9150509250925092565b604051601f8201601f191681016001600160401b0381118282101715620002b357620002b362000321565b604052919050565b60006001600160401b03821115620002d757620002d762000321565b5060051b60200190565b60006000198214156200030457634e487b7160e01b600052601160045260246000fd5b5060010190565b634e487b7160e01b600052603260045260246000fd5b634e487b7160e01b600052604160045260246000fd5b6001600160a01b03811681146200034d57600080fd5b50565b60805160601c6105fa6200038460003960008181610131015281816101ef0152818161038d015261043401526105fa6000f3fe608060405234801561001057600080fd5b50600436106100935760003560e01c80634aecac51116100665780634aecac51146100da5780636ef61092146100e25780637eb1184514610102578063ce7c2ac21461010c578063fc0c546a1461012c57600080fd5b806310098ad51461009857806318e06e82146100be5780633ccfd60b146100c75780634adae0da146100d1575b600080fd5b6100ab6100a63660046104da565b61016b565b6040519081526020015b60405180910390f35b6100ab60015481565b6100cf6101d4565b005b6100ab60005481565b6100ab610415565b6100ab6100f03660046104da565b60036020526000908152604090205481565b6100ab620186a081565b6100ab61011a3660046104da565b60026020526000908152604090205481565b6101537f000000000000000000000000000000000000000000000000000000000000000081565b6040516001600160a01b0390911681526020016100b5565b6001600160a01b0381166000908152600260205260408120548190620186a090610193610415565b61019d9190610578565b6101a79190610556565b6001600160a01b0384166000908152600360205260409020549091506101cd9082610597565b9392505050565b6000546001546040516370a0823160e01b81523060048201527f00000000000000000000000000000000000000000000000000000000000000006001600160a01b0316906370a082319060240160206040518083038186803b15801561023957600080fd5b505afa15801561024d573d6000803e3d6000fd5b505050506040513d601f19601f820116820180604052508101906102719190610525565b61027b919061053e565b6102859190610597565b600080828254610295919061053e565b9091555050336000908152600260205260409020546102eb5760405162461bcd60e51b815260206004820152600e60248201526d41544d3a206e6f2073686172657360901b604482015260640160405180910390fd5b60006102f63361016b565b3360009081526003602052604081208054929350839290919061031a90849061053e565b925050819055508060016000828254610333919061053e565b909155505060408051338152602081018390527f884edad9ce6fa2440d8a54cc123490eb96d2768479d49ff9c7366125a9424364910160405180910390a160405163a9059cbb60e01b8152336004820152602481018290527f00000000000000000000000000000000000000000000000000000000000000006001600160a01b03169063a9059cbb90604401602060405180830381600087803b1580156103d957600080fd5b505af11580156103ed573d6000803e3d6000fd5b505050506040513d601f19601f820116820180604052508101906104119190610503565b5050565b600080546001546040516370a0823160e01b81523060048201528291907f00000000000000000000000000000000000000000000000000000000000000006001600160a01b0316906370a082319060240160206040518083038186803b15801561047e57600080fd5b505afa158015610492573d6000803e3d6000fd5b505050506040513d601f19601f820116820180604052508101906104b69190610525565b6104c0919061053e565b6104ca9190610597565b6104d4908261053e565b90505090565b6000602082840312156104ec57600080fd5b81356001600160a01b03811681146101cd57600080fd5b60006020828403121561051557600080fd5b815180151581146101cd57600080fd5b60006020828403121561053757600080fd5b5051919050565b60008219821115610551576105516105ae565b500190565b60008261057357634e487b7160e01b600052601260045260246000fd5b500490565b6000816000190483118215151615610592576105926105ae565b500290565b6000828210156105a9576105a96105ae565b500390565b634e487b7160e01b600052601160045260246000fdfea2646970667358221220270d5ba97294d4813e34416f432c52792e07d7f478135993f19c0afd019c7cf364736f6c63430008060033",
  "devdoc": {
    "kind": "dev",
    "methods": {},
    "version": 1
  },
  "userdoc": {
    "kind": "user",
    "methods": {},
    "version": 1
  },
  "storageLayout": {
    "storage": [
      {
        "astId": 26,
        "contract": "contracts/Atm.sol:Atm",
        "label": "depositTotal",
        "offset": 0,
        "slot": "0",
        "type": "t_uint256"
      },
      {
        "astId": 28,
        "contract": "contracts/Atm.sol:Atm",
        "label": "withdrawTotal",
        "offset": 0,
        "slot": "1",
        "type": "t_uint256"
      },
      {
        "astId": 32,
        "contract": "contracts/Atm.sol:Atm",
        "label": "shares",
        "offset": 0,
        "slot": "2",
        "type": "t_mapping(t_address,t_uint256)"
      },
      {
        "astId": 36,
        "contract": "contracts/Atm.sol:Atm",
        "label": "withdrawn",
        "offset": 0,
        "slot": "3",
        "type": "t_mapping(t_address,t_uint256)"
      }
    ],
    "types": {
      "t_address": {
        "encoding": "inplace",
        "label": "address",
        "numberOfBytes": "20"
      },
      "t_mapping(t_address,t_uint256)": {
        "encoding": "mapping",
        "key": "t_address",
        "label": "mapping(address => uint256)",
        "numberOfBytes": "32",
        "value": "t_uint256"
      },
      "t_uint256": {
        "encoding": "inplace",
        "label": "uint256",
        "numberOfBytes": "32"
      }
    }
  }
}